:0200000021C01D
:1000020031C5B2C517C5FBCFFACFF9CFF8CFF7CFBD
:10001200F6CFF5CF45C0F3CFF2CFF1CFF0CFAEC5DB
:10002200EECFEDCF0000000001002D4E414E004901
:100032004E460000030007002600010040032A008C
:100042000000F894EE27ECBBF1E0FBBFEBBFE5BF8D
:10005200F8E1F1BDE1BD8DE0A2E0BB27ED938A9509
:10006200E9F780E094E0A0E6ED930197E9F7E6E393
:10007200F0E085919591009761F0A591B591059079
:100082001590BF01F00105900D920197E1F7FB0178
:10009200F0CFEFE5EDBFE4E0EEBFC0E6D1E0FCC893
:1000A2000A921A92FA926A937A938A939A93AA93E9
:1000B200BA93EA93FA93EFB7EA9348DD1BB10CB116
:1000C200E12FEC7111F4A02F87D109911991E991D7
:1000D200EFBFF991E991B991A9919991899179919A
:1000E2006991F990199009901895BA93AA93229759
:1000F20029DDA885B985EC91E03009F054C0E88586
:10010200F985E181FE2FE0E0DF01E885F985E281F2
:10011200F0E0EA0FFB1FE093FB02F093FC02E8859C
:10012200F985E381FE2FE0E0DF01E885F985E481CE
:10013200F0E0EA0FFB1FE093FD02F093FE02E88578
:10014200F985E581FE2FE0E0DF01E885F985E681AA
:10015200F0E0EA0FFB1FE093FF02F0930003E88553
:10016200F985E781FE2FE0E0DF01E885F985E0858A
:10017200F0E0EA0FFB1FE0930103F0930203E8852E
:10018200F985E285E0930303E885F985E185E0934B
:100192000403A0910403A13010F0E1E001C0E0E00B
:1001A200E0936D02C9C0E13021F4E1E0E0936E0218
:1001B200C3C0E230D9F4A885B9851396AC91A130B9
:1001C20021F4E8ECE0936F0210C0E885F985E18143
:1001D200FE2FE0E0DF01E885F985E281F0E0EA0F39
:1001E200FB1FE0935E02F0935F02A6C0E33049F486
:1001F200E885F985E181E0936C02E1E0E093710228
:100202009BC0E43041F5A885B98514969C90A091D5
:10021200E902AE3210F49920E9F0E885F985E1812E
:10022200FE2FE0E0DF01E885F985E281F0E0EA0FE8
:10023200FB1F8F010936E1E01E0720F400935B02E9
:1002420010935C02A885B98513963C91353B10F456
:1002520030935D0271C0E53091F4E1E0E093720207
:10026200E885F985E181E0937002A885B985129647
:10027200AC91A13019F4E1E0E09373025DC0E63085
:1002820069F4AEE1B0E035DCE0935B02F0935C022E
:10029200A0E2B0E032DCE0935D024EC0E73031F51F
:1002A200E1E07E2E48855985DA01119618DCE0934B
:1002B2005B02F0935C02FA01E381E0935D02DA01F2
:1002C200149611DCE093CD02F093CE026093CF023C
:1002D2007093D002DA01189606DCE093D102F09313
:1002E200D2026093D3027093D40226C0E83021F583
:1002F200E885F985EE83FF83E181E093F402A09122
:10030200F402A13010F0E1E001C0E0E0E0936D0200
:10031200A091F402A23081F4AE81BF811496DFDB9A
:10032200E093F702F093F802AE81BF811696D7DB15
:10033200E093F902F093FA02E9C0BA93AA931A93EE
:1003420010E0E0913503E03039F4AB81AA3519F4BD
:10035200E1E0E09335033DC0A0913503A13099F46B
:10036200AB81A23010F0A73110F0E0E009C0EB81C0
:10037200E0933303E0933603E0E0E0933403E2E0FA
:10038200E093350326C0E0913303A0913403EA17CA
:1003920068F4E0E0E0933503EB81A0913603EA17BD
:1003A20021F4E0913303EF5F1E2F13C0E091340379
:1003B200EF5FE0933403E150A981BA81F0E0EA0FE4
:1003C200FB1FAB81A083EB81A0913603EA27E09368
:1003D2003603E12F188195CAAA931A9310E0E98196
:1003E200EA93ADE7B2E0A9DF1E2F103081F0F89456
:1003F200E0E9F2E0FA93EA93EDE7F2E0FA93EA93A6
:10040200A12FBB2780DA7894A0E9B2E06EDEE12F5B
:100412001881EBC5AA939ADB11E0E0916A02E770BA
:10042200A12FB3DA1E2FE0916A02E695E695E695D2
:100432000E2FEA81E03039F0A02FB0E0AE59BD4F67
:10044200EC91E12B0AC0E02FF0E0EE59FD4F0F01D5
:10045200A081E12FE095EA23D001EC93E0916A02BA
:10046200EF5FE0936A02A0916A02A03418F0E0E024
:10047200E0936A0272DB2396089566DB10E000E0E7
:10048200183068F4E12FF0E0EE59FD4F3081303042
:1004920021F030FD0F5F3695FACF1F5FF1CFE02FCD
:1004A2005ADB2FCABA93AA9322974CDB4885598507
:1004B200E8E0F4E8EE83FF8310E01B3028F501E06A
:1004C2000030F1F0EE81E1703E2FEE81FF81F69572
:1004D200E795EE83FF83DA01EC91E02329F0DE0158
:1004E2001796EC91E068EC93303041F0AE81BF8119
:1004F200E8E0F4E8EA27FB27EE83FF83000FE0CF72
:100502001F5F4F5F5F4FD9CFEE81FF8122DB2A96BB
:1005120008952E9717DB20E030E0AA2410E01E3069
:1005220008F0FCC0AEE01A9FF001E05AFE4FAF01A6
:10053200DA01EC91E03009F4EFC0DA01B3DF9F0198
:10054200022E032A09F0E8C0DA01EC91E03101F54C
:10055200772011F4992009F01AC04A8B5B8BE7EAE5
:10056200F2E0FA93EA93EC89FD89A181B28159D92B
:10057200E0935B02F0935C02EFEAF2E0FA93EA9313
:10058200EC89FD89A381B4814CD9E0935D02C3C09B
:10059200E032D9F4488B598BA889B9891196A3DA2C
:1005A200E093C502F093C6026093C7027093C8023B
:1005B200A889B989159697DAE093C902F093CA021D
:1005C2006093CB027093CC02A6C0E03329F54E872C
:1005D2005F87AE85BF85119682DAE093D502F093EC
:1005E200D602AE85BF8513967ADAE093D702F093EE
:1005F200D802AE85BF85159672DAE093D902F093E0
:10060200DA02EE85FF85E781E093DB02EE85FF8566
:10061200E085E093DC027FC0E03401F54C875D8722
:10062200AC85BD8511965BDAE093DD02F093DE02C4
:10063200AC85BD85139653DAE093DF02F093E002B6
:10064200AC85BD8515964BDAE093EA02F093EB0296
:10065200EC85FD85E781E093EF025DC0E03529F589
:100662004A875B87AA85BB85119639DAE093E10256
:10067200F093E202AA85BB85139631DAE093E30296
:10068200F093E402AA85BB85159629DAE093E50288
:10069200F093E602EA85FB85E781E093ED02EA85C5
:1006A200FB85E085E093EE0236C0E036E9F4772080
:1006B200D1F448875987A885B985119614DAE09351
:1006C200CD02F093CE026093CF027093D002A88540
:1006D200B985159608DAE093D102F093D2026093BD
:1006E200D3027093D40217C0E037B1F4E1E0E09393
:1006F20074024E835F83AE81BF811196F0D9E0937D
:100702001103F0931203AE81BF811396E8D9E093EF
:100712001303F0931403A3941F5F01CFE0E6F1E00B
:10072200FA93EA93E0E0EA93A4ECB0E0FED811DA9F
:1007320064960895AA93E881E064E7B983E48A9510
:10074200F1F7369A349BFECF349AE4B1F5B1219693
:100752000895FAD9E091F902F091FA029F01A0916D
:10076200F702B091F802E091F902F091FA02AE17A5
:10077200BF0798F4A091F902B091FA02E091F70252
:10078200F091F802AE1BBF0BE5E0F0E042D98F0119
:100792002091F7023091F8020EC0A091F702B091B9
:1007A200F802E091F902F091FA02AE1BBF0BE5E00C
:1007B200F0E02FD98F01F901E00FF11FE0937502EC
:1007C200F0937602A2E0A09FF001A19FF00DE20F4C
:1007D200F31FE0937702F0937802A3E0A09FF00169
:1007E200A19FF00DE20FF31FE0937902F0937A02DA
:1007F200A4E0A09FF001A19FF00DE20FF31FE09390
:100802007B02F0937C02A7D97CC89CD9A0E092DF3E
:100812009F01A091F702B091F802E091F902F091E4
:10082200FA02AE17BF07B8F5E091F702F091F802AD
:100832002E173F0720F42091F7023091F802E09141
:10084200F902F091FA02E217F30720F42091F9027B
:100852003091FA02A091F702B091F802F901EA1B75
:10086200FB0BA091F902B091FA02AE1BBF0B8D01F6
:10087200E091F902F091FA02E21BF30BA4E6B0E078
:1008820096D80F01E091F902F091FA02A091F702D5
:10089200B091F8022AC0E091F702F091F802E21753
:1008A200F30720F42091F7023091F802E091F90267
:1008B200F091FA022E173F0720F42091F9023091AD
:1008C200FA028901A091F902B091FA02F901EA1B38
:1008D200FB0BA4E6B0E06BD80F01E091F702F091B8
:1008E200F802A091F902B091FA02EA1BFB0BD001C7
:1008F20090D85E2FE0917502F09176020E171F07D5
:1009020018F4C09AC39A2AC0E0917702F091780253
:100912000E171F0740F4E82DE03011F4C39801C010
:10092200C39AC09A1BC0E0917902F0917A020E1725
:100932001F0718F4C398C09A11C0E0917B02F0918E
:100942007C020E171F0740F4C398E82DE03011F423
:10095200C09801C0C09A02C0C398C098A7EEB2E086
:10096200E52FF0E0ED93FC93F4D8DDC7442009F4C1
:1009720008955D9B0895E32DF0E0EC5DFD4FE0816D
:10098200ECB93394431409F444240895AA93DCD8AF
:10099200442019F0AC81A03009F002C0DCD8FDC2BD
:1009A2004424332424E232E0D9012F5F3F4FEAE5A9
:1009B200EC933F932F932F5F3F4FED81AF91BF9108
:1009C200EC931D813F932F932F5F3F4FE885AF91AB
:1009D200BF91EC931E2700E0ED810E17B0F4AE81BB
:1009E200BF81EE27A00FBE1FEC911E273F932F93CE
:1009F2002F5F3F4FAE81BF81EE27A00FBE1FEC914C
:100A0200AF91BF91EC930F5FE7CF3F932F932F5F8F
:100A12003F4FE12FAF91BF91EC93D9012F5F3F4F31
:100A2200EDE0EC93D901EAE0EC93ED81EA5F4E2E22
:100A320092D8B3C2AA93EA93FA93EFB7EA93E0E0AB
:100A4200E8B9F60131966F01E233A1E0FA0720F02E
:100A5200CC24DD24E2E0BE2EE991EFBFF991E991C9
:100A6200A99118950A921A92AA93BA93EA93FA93C1
:100A7200EFB7EA931A93E4B5EC3308F46BC0E4B52C
:100A8200A0916002B0916102F0E0EA0FFB1FE093D7
:100A92006002F0936102E0E0E4BDCC24DD249A9B85
:100AA20011C0A0916002B0916102A93DE6EDBE07BE
:100AB20040F0E0E0E0936002E0936102E2E0BE2EEB
:100AC20049C010C0A0916002B0916102A93CEFEA56
:100AD200BE0740F0E0E0E0936002E0936102E2E0F2
:100AE200BE2E38C0E8EC2E1608F42394E0E12E1650
:100AF20088F1E22DE0511E2F1E3050F4AEE01A9F15
:100B0200F001E05AFE4F5E2E6F2EEAE1E8B922C0F4
:100B12001E3051F4A0916002B0916102A93CEFEA4B
:100B2200BE0710F09A9901C001C00DC01E3051F4E9
:100B3200A0916002B0916102A93BE8E8BE0710F003
:100B42009A9B01C007C0E1E0BE2EE0E0E0936002A4
:100B5200E09361021991E991EFBFF991E991B9919D
:100B6200A991199009901895EA93EFB7EA93222474
:100B7200E0E0E8B9E991EFBFE99118950A931A9379
:100B82002A93AA93BA930FB70A93A52DB62D0BE019
:100B920018E01A9500000000000000000000C9F7EC
:100BA200000000000000000000001127459B1061BA
:100BB200000000000000000000000000459B1062E1
:100BC200000000000000000000000000459B1064CF
:100BD200000000000000000000000000459B1068BB
:100BE2000000000000000000212F1127459B11602A
:100BF20000000000000000002D93459B12600000E1
:100C020000000000000000000000459B146001503D
:100C120000000000000000000000459B186000007A
:100C220000000000000010F600E008B909910FBFB3
:100C3200B991A9912991199109911895BA93AA93F9
:100C4200269780D7ADE0B3E0EE85F0E0EE0FFF1F10
:100C5200AE0FBF1F0D901C90EE85A9E0B3E0F0E04F
:100C6200EE0FFF1FAE0FBF1F3AD7D001AE1BBF0B57
:100C7200AE83BF83EE81FF8195D6E887F9876A87C5
:100C82007B87EC85FD85A885B9858A859B85662746
:100C92007727BAD6E887F9876A877B87EE85E030BF
:100CA200C1F4E0916B02E03049F0A885B9858A85EC
:100CB2009B85E8E6F1E060E070E008C0A885B985B0
:100CC2008A859B85E4EBF0E060E070E0DFD68F017F
:100CD20017C0E0916B02E03049F0A885B9858A859A
:100CE2009B85EAE5F0E060E070E008C0A885B98580
:100CF2008A859B85E4EBF0E060E070E0C7D68F0167
:100D0200EE85A9E0B3E0F0E0EE0FFF1FAE0FBF1FCC
:100D1200E6D60E0F1F1FAE81BF8117D6EE83FF836B
:100D2200EE85A7E3B3E0F0E0EE0FFF1FAE0FBF1FAB
:100D32002D913C910217130709F462C0EE85ABE3D3
:100D4200B3E0F0E0EE0FFF1FAE0FBF1F4D915C91BD
:100D5200201731072CF4EE81FF814E0F5F1F04C074
:100D6200AE81BF814A1B5B0BE0917002DA01F0E0B9
:100D720063D6EE83FF83E0917002AE81BF81F0E023
:100D82003ED64E1B5F0BEE85ABE3B3E0F0E0EE0F19
:100D9200FF1FEA0FFB1F40835183F901AE81BF8120
:100DA200EA0FFB1FEE83FF83201731072CF4AE817D
:100DB200BF810A171B070CF001C00CC002171307F2
:100DC2002CF4AE81BF81A017B1070CF001C002C0A4
:100DD2000E811F81EE85A7E3B3E0F0E0EE0FFF1F67
:100DE200EA0FFB1F00831183EE85E03029F4F8013E
:100DF200D4D5EBBD0ABD04C0F801CFD5E9BD08BD0D
:100E0200A8D62F9608959ED6E0916B02E03021F08D
:100E1200A0915D02AB3508F403C0EAE5E0935D0200
:100E2200E0915B02F0915C02E093F002F093F10238
:100E3200E0915D02E093F20200915B0210915C028C
:100E4200E0915E02F0915F020E0F1F1F0836E1E093
:100E52001E0728F0D801E8E6F1E01DD68F01053B18
:100E6200E0E01E0720F0E0916B02E03009F00AC0DA
:100E7200F801E45BF0409F01A0915D02E4EBEA1B04
:100E82004E2F03C0980140915D0255272093C10265
:100E92003093C2024093C3025093C402E0E0EA934B
:100EA200D901CCDEE1E0EA93DA01C8DE52D63BC5D5
:100EB200BA93AA9347D64CE755E1E885A7E3B3E096
:100EC200F0E0EE0FFF1FAE0FBF1F0D911C91EE81E0
:100ED200FF81E017F10709F45FC0E885ABE3B3E0F7
:100EE200F0E0EE0FFF1FAE0FBF1F2D913C91EE8180
:100EF200FF810E171F071CF4240F351F02C0241B8D
:100F0200350BE0917002D901F0E096D5AF01E09186
:100F12007002DA01F0E073D52E1B3F0BE885ABE3DC
:100F2200B3E0F0E0EE0FFF1FEA0FFB1F20833183D7
:100F3200400F511FEE81FF810E171F071CF4E417AB
:100F4200F5070CF001C00CC0EE81FF81E017F1073C
:100F52001CF44E175F070CF001C002C04E835F8382
:100F6200E885A7E3B3E0F0E0EE0FFF1FEA0FFB1FF7
:100F7200AE81BF81A083B183E885E03039F4EE8190
:100F8200FF810BD5EBBDEE81EABD06C0EE81FF818C
:100F920004D5E9BDEE81E8BDDCD529960895BA9362
:100FA200AA93A881B981A83EE3E0BE0720F0A53646
:100FB200E9E1BE0718F0E6EAFEE017C014C0BA93F2
:100FC200AA93A881B981A83EE3E0BE0718F4E8EE2F
:100FD200F3E00BC0A881B981A536E9E1BE0718F09C
:100FE200E4E6F9E102C0E881F981229608951A93B4
:100FF20010E0A2E1B0E07DD5DF01E0910903F091BC
:101002000A03EA17FB0709F011E0A4E1B0E071D589
:10101200DF01E0910D03F0910E03EA17FB0709F0DF
:1010220011E0A6E1B0E065D5DF01E0910B03F0919C
:101032000C03EA17FB0709F011E0A8E1B0E059D56B
:10104200DF01E0910F03F0911003EA17FB0709F0AB
:1010520011E0AAE1B0E051D5AE2FE0916B02EA17A0
:1010620009F011E0A0E1B0E044D5DF01E0915E02B9
:10107200F0915F02EA17FB0709F011E0E12F1991E5
:1010820008959498E0910403E13071F4A091FB0279
:10109200B091FC0294DFE0930903F0930A03E0931A
:1010A200A302F093A402ADC0E23091F4A091FF023A
:1010B200B091000384DFE0930D03F0930E03E091FF
:1010C2000D03F0910E03E093A302F093A40299C0E2
:1010D200E33091F4A091FD02B091FE0270DFE09343
:1010E2000B03F0930C03E0910B03F0910C03E093DC
:1010F200A502F093A60285C0E43091F4A091010309
:10110200B09102035CDFE0930F03F0931003E091D0
:101112000F03F0911003E093A502F093A60271C0B1
:10112200E53019F5E0910303E03071F4E0E0E0937B
:101132006B02949AA2E3B0E012D49498A2E3B0E0D6
:101142000ED4949AA2E30DC0E1E0E0936B02949A6C
:10115200A4E1B0E004D49498A2E3B0E000D4949A5D
:10116200A4E1B0E0FCD394984CC0E63009F049C049
:101172003EDFE03009F445C0E0910903F0910A0333
:10118200A2E1B0E0C6D4E0910D03F0910E03A4E118
:10119200B0E0BFD4E0910B03F0910C03A6E1B0E004
:1011A200B8D4E0910F03F0911003A8E1B0E0B1D4FC
:1011B200E0916B02AAE1B0E0B4D4E0915E02F0915A
:1011C2005F02A0E1B0E0A5D4949AAEE1B0E0C7D34B
:1011D2009498A4E1B0E0C3D3949AAEE1B0E0BFD357
:1011E2009498A4E1B0E0BBD3949AAEE1B0E0B7D357
:1011F2009498A4E1B0E0B3D3949AA6E4B0E0AFD35C
:101202009498E091F402E130E1F4A0913F03AF5FE2
:10121200A0933F03A150A53698F0A0E08BDAE093AB
:10122200F502F093F602E9E0EA93E3EFF2E0FA93D3
:10123200EA93E8E0EA93A1E0A9DBE0E0E0933F0370
:1012420021C0E230F9F4E091F702F091F802A1E254
:10125200B0E05FD4E091F902F091FA02A3E2B0E0CB
:1012620058D477DA949AAEE1B0E079D39498A4E1B5
:10127200B0E075D3949AAEE1B0E071D39498E0E017
:10128200E0936D02E0E0E0930403A091F402A13048
:1012920011F0E093F4020895E0E3E8BBEFE0E7BB6E
:1012A200ECE0E5BBE0E0E4BBE2BBE2E3E1BBE0E0B3
:1012B200E3BFE2BFE2EAEFBDEAE1EEBDE0E0EDBD91
:1012C200ECBDE3ECE7BDE0E5E6BDEEE0EBBDE6EA52
:1012D200EABDEEE0E9BDE6EAE8BD10E01230D0F486
:1012E200E12FA7E3B3E0F0E0EE0FFF1FAE0FBF1F49
:1012F200E6EAFEE0ED93FC93E12FABE3B3E0F0E02E
:10130200EE0FFF1FAE0FBF1FE0E0F0E0ED93FC9386
:101312001F5FE4CFE0E0E2BDEAE0E5BDE0E0E4BD6E
:10132200E5EAE3BDE0ECEBBFEAE8E5BFE0ECEABFEB
:10133200E0E8E9BFE0E0EBB9E8E9EAB9E6E8E0BDF8
:10134200E0E0E0BDE0E2E9B9E0E0E8B9E0BFE0E416
:10135200E7B9E5E8E6B9A2E1B0E0CBD3DF011FDEF1
:10136200E0930903F0930A03A4E1B0E0C2D3DF01E2
:1013720016DEE0930D03F0930E03A6E1B0E0B9D3BD
:10138200DF010DDEE0930B03F0930C03A8E1B0E064
:10139200B0D3DF0104DEE0930F03F0931003AAE160
:1013A200B0E0ABD3E23020F0AAE1B0E0E0E0B9D3A4
:1013B200AAE1B0E0A2D3E0936B02ABE1B0E09DD32F
:1013C200E23020F0ABE1B0E0E1E0ABD3ABE1B0E082
:1013D20094D3E0936C02ACE1B0E08FD3E73920F014
:1013E200ACE1B0E0E2E39DD3ACE1B0E086D3E093C0
:1013F2007002E1E1E093EC02A1E2B0E07AD3E130E5
:10140200A4E0FA0728F0A1E2B0E0E0E0F4E081D342
:10141200A1E2B0E06ED3E093F702F093F802A3E208
:10142200B0E067D3E130A4E0FA0728F0A3E2B0E02D
:10143200E0E0F0E06ED3A3E2B0E05BD3E093F90228
:10144200F093FA02E7EAF2E0FA93EA93A0E0B0E05E
:10145200D0D1EFEAF2E0FA93EA93A0E0B0E0C9D18A
:10146200A0E1B0E046D3E836A1E0FA0728F0A0E117
:10147200B0E0E0E0F0E04DD3A0E1B0E03AD3E09399
:101482005E02F0935F0265D92224E0E6F1E05E2E6F
:101492006F2E00E030E0AEE1B0E02BD3E936A1E000
:1014A200FA0728F0AEE1B0E0E0E0F0E032D3A0E2EB
:1014B200B0E023D3E53B20F0A0E2B0E0E0E031D39E
:1014C200AEE1B0E016D3E0935B02F0935C02A0E2DF
:1014D200B0E013D3E0935D02E0910903F0910A03B7
:1014E200E093A302F093A402E0910B03F0910C03AA
:1014F200E093A502F093A602A8ECB0E030D2C39A22
:10150200A0916C02A13009F4949AA8ECB0E027D221
:10151200C3989498C09AA8ECB0E021D2C098959A4A
:10152200A0916C02A13009F4949AA8ECB0E017D211
:1015320095989498A8ECB0E012D278948895E091AE
:101542006D02E03009F040C1BB2009F43CC11B2D03
:10155200BB24113079F4DDD710E0153048F4AA200D
:1015620019F0AA94A0E001C0A1E054D71F5FF5CF03
:1015720084D701C0E4E6E093E902A091E902A13236
:1015820010F0959A01C095980F5F053090F000E039
:10159200E1E08E263F5F353058F030E0A091E9025D
:1015A200A33328F0A0916C02A13009F4949A01C0EF
:1015B20094982BD9003021F4E0917402E03009F4C0
:1015C20008C0EAE0EA93E1E1F3E0FA93EA93E2E2A7
:1015D20011C0023041F4E2E0EA93E0EFF2E0FA9364
:1015E200EA93E3E007C0E0E0EA93E1ECF2E0FA9389
:1015F200EA93EFE2EA93A1E0C9D9B49914C0E1E019
:10160200E0936F02AEE5B2E0ED91FD913196FE936B
:10161200EE93E836A1E0FA0728F0E0E0E0935E02FC
:10162200E0935F022AC09B9913C0E1E0E0936F024E
:10163200AEE5B2E0ED91FD913197FE93EE933297D4
:1016420030F4E7E6F1E0E0935E02F0935F0215C04A
:10165200E0916F02E03089F0A0916F02AF5FA0933A
:101662006F02A83C50F0E0E0E0936F02E0915E026E
:10167200F0915F02A0E1B0E04CD2C5DBA0916E0216
:10168200A13011F4013009F041C0E0E0E0936E02B4
:10169200E0910903F0910A03E093FB02F093FC024C
:1016A200E0910B03F0910C03E093FD02F093FE0234
:1016B200E0910D03F0910E03E093FF02F09300031B
:1016C200E0910F03F0911003E0930103F093020302
:1016D200E0916B02E0930303E0915E02F0915F02FE
:1016E200E0930503F0930603E0916C02E093070395
:1016F200E0917002E0930803E1E0EA93EBEFF2E09D
:10170200FA93EA93EEE0EA93A1E040D9043009F0BB
:101712005AC0E0917102E03071F0E0E0E0937102B2
:10172200ABE1B0E0EAD1AE2FE0916C02EA1719F01A
:10173200ABE1B0E0F6D1E0917202E030B1F0E0E06E
:10174200E0937202ACE1B0E0D8D1AE2FE09170022A
:10175200EA1719F0ACE1B0E0E4D1949AAEE1B0E05E
:10176200FED09498A4E1B0E0FAD0E0917302E030A8
:1017720051F1E0E0E0937302AEE1B0E0BAD1DF01F3
:10178200E0915B02F0915C02EA17FB0739F0E0910D
:101792005B02F0915C02AEE1B0E0BBD1A0E2B0E04E
:1017A200ACD1AE2FE0915D02EA1729F0E0915D0223
:1017B200A0E2B0E0B6D1949AAEE1B0E0D0D0949875
:1017C200A4E1B0E0CCD012C05CDCBB2079F0BB2439
:1017D200E0E0EA93A091A302B091A40269DBE1E008
:1017E200EA93A091A502B091A60262DBBFD8A6CE71
:1017F200FFCFBA93AA93E881F981AA81BB81ED93C5
:10180200FC93AA81BB811296ED93FC93AA81BB81C2
:101812001496ED93FC93AA81BB811696ED93FC93EB
:1018220070C0BA93AA93AA81BB81129658D1AA8199
:10183200BB81ED93FC93AA81BB81149650D1AA81FE
:10184200BB811296ED93FC93E881F981AA81BB8159
:101852001496ED93FC93EA81FB8104801580AA81A2
:10186200BB8112963CD10E161F063CF5EA81FB8124
:1018720004801580AA81BB8132D10E161F069CF40A
:10188200EA81FB81028013802AD10E161F0614F40E
:10189200129602C0AA81BB8122D1AA81BB8116966F
:1018A200ED93FC9309C0AA81BB81149618D1AA8139
:1018B200BB811696ED93FC9320C0EA81FB810480E4
:1018C2001580AA81BB810BD10E161F0614F4149643
:1018D2000EC0EA81FB8102801380AA81BB81FFD006
:1018E2000E161F060CF403C0AA81BB811296F7D014
:1018F200AA81BB811696ED93FC93AA81BB811696B1
:10190200EED024960895BA93AA939981888100967D
:1019120041F0BD81AC81FB81EA8161916D930197B8
:10192200E1F7FD81EC8126960895BA93AA93B981D5
:10193200A881109631F0FC81EB816A816193119745
:10194200E9F7EB81FC8125960895BA93AA93E99170
:10195200F99130971AF4E095F09531960895109622
:1019620039F088E893E10197F1F7A8951197C9F743
:101972000895F195E195F0400895F0956095709580
:10198200E195FF4F6F4F7F4F0895EE230E2EEA2F02
:1019920019F0EE0F0A94E9F70895EF2FFF27E7FDFC
:1019A200FFEF08956F2F660F660B762F0895FA9F4B
:1019B200F02DEB9FF00DEA9FE02DF10D08957A9F37
:1019C200702D6B9F700DF89F700DE99F700D6A9FCF
:1019D200602D710DFB9F600D711DE89F600D711DE3
:1019E2008827FA9FF02D610D781FEB9FF00D611D86
:1019F200781FEA9FE02DF10D681F781F08954ED0E1
:101A0200D6DF0EF4B6DF089557D0D9DF0EF4B5DF76
:101A120008950024112490E1AA0FBB1F001C111C81
:101A22000E1A1F0A18F40E0E1F1E01C0A1609A950D
:101A320099F7FD01D001089531D0EBDF0EF499DF63
:101A420008953F934F935F93002411244427552711
:101A520030E2AA0FBB1F881F991F001C111C441FD4
:101A6200551F0E1A1F0A460B570B28F40E0E1F1E87
:101A7200461F571F01C0A1603A9559F7FD01BC01ED
:101A8200D001CA015F914F913F91089515D0D9DFDE
:101A92000EF473DF0895BDDFFD010895E894F7FFAA
:101AA20002C067DF6894B7FF06C0A095B095119693
:101AB20000F8039400FA0895E89477FF02C05DDF0E
:101AC200689497FF0BC00024A095B09580959095DF
:101AD2001196801D901D00F8039400FA0895ED916F
:101AE200FC9111970895ED91FD916D917C91139761
:101AF2000895119602D0FE2F1197E199FECFFF9320
:101B0200FFB7F894AEBBBFBBE09AEDB3FFBFFF9146
:101B1200089507D01196EF93EF2F03D0EF9111970D
:101B22000895E19B02C0A895FCCF9FB7F894AEBB85
:101B3200BFBBE09A8DB3E81719F0EDBBE29AE19AC8
:101B42009FBF08955A934A933A932A931A930A93FA
:101B520008955D814C813B812A8119810881089514
:00000001FF
