:0C00000021C026C5A7C50CC5FBCFFACF58
:10000C00F9CFF8CFF7CFF6CFF5CF45C0F3CFF2CF7E
:10001C00F1CFF0CFA3C5EECFEDCF00000000010073
:10002C002D4E414E00494E460000030007002600AD
:10003C0001002F032A000000F894EE27ECBBF1E03E
:10004C00FBBFEBBFE5BFF8E1F1BDE1BD8DE0A2E088
:10005C00BB27ED938A95E9F780E094E0A0E6ED9359
:10006C000197E9F7E6E3F0E085919591009761F04F
:10007C00A591B59105901590BF01F00105900D92D9
:10008C000197E1F7FB01F0CFEFE5EDBFE4E0EEBF48
:10009C00C0E6D1E010C70A921A92FA926A937A9348
:1000AC008A939A93AA93BA93EA93FA93EFB7EA9343
:1000BC00ADD91BB10CB1E12FEC7111F4A02F87D18C
:1000CC0009911991E991EFBFF991E991B991A99130
:1000DC009991899179916991F99019900990189554
:1000EC00BA93AA9322978ED9A885B985EC91E03062
:1000FC0009F054C0E885F985E181FE2FE0E0DF01CD
:10010C00E885F985E281F0E0EA0FFB1FE093EB0252
:10011C00F093EC02E885F985E381FE2FE0E0DF0146
:10012C00E885F985E481F0E0EA0FFB1FE093ED022E
:10013C00F093EE02E885F985E581FE2FE0E0DF0122
:10014C00E885F985E681F0E0EA0FFB1FE093EF020A
:10015C00F093F002E885F985E781FE2FE0E0DF01FE
:10016C00E885F985E085F0E0EA0FFB1FE093F102EA
:10017C00F093F202E885F985E285E093F302E885D5
:10018C00F985E185E093F402A091F402A13010F01E
:10019C00E1E001C0E0E0E0936D02C9C0E13021F480
:1001AC00E1E0E0936E02C3C0E230D9F4A885B985D2
:1001BC001396AC91A13021F4E8ECE0936F0210C0DF
:1001CC00E885F985E181FE2FE0E0DF01E885F9851E
:1001DC00E281F0E0EA0FFB1FE0935E02F0935F0216
:1001EC00A6C0E33049F4E885F985E181E0936C021F
:1001FC00E1E0E09371029BC0E43041F5A885B9853C
:10020C0014969C90A091D902AE3210F49920E9F08A
:10021C00E885F985E181FE2FE0E0DF01E885F985CD
:10022C00E281F0E0EA0FFB1F8F010936E1E01E07C7
:10023C0020F400935B0210935C02A885B985139699
:10024C003C91353B10F430935D0271C0E53091F474
:10025C00E1E0E0937202E885F985E181E0937002B8
:10026C00A885B9851296AC91A13019F4E1E0E09320
:10027C0073025DC0E63069F4AEE1B0E09AD8E09369
:10028C005B02F0935C02A0E2B0E097D8E0935D02D1
:10029C004EC0E73031F5E1E07E2E48855985DA0114
:1002AC0011967DD8E0935B02F0935C02FA01E38136
:1002BC00E0935D02DA01149676D8E093BD02F093D8
:1002CC00BE026093BF027093C002DA0118966BD81D
:1002DC00E093C102F093C2026093C3027093C40214
:1002EC0026C0E83021F5E885F985EE83FF83E181AE
:1002FC00E093E402A091E402A13010F0E1E001C02F
:10030C00E0E0E0936D02A091E402A23081F4AE81B2
:10031C00BF81149644D8E093E702F093E802AE81D3
:10032C00BF8116963CD8E093E902F093EA02E8C04C
:10033C00BA93AA931A9310E0E0912503E03039F4B4
:10034C00AB81AA3519F4E1E0E09325033DC0A091FF
:10035C002503A13099F4AB81A23010F0A73110F035
:10036C00E0E009C0EB81E0932303E0932603E0E097
:10037C00E0932403E2E0E093250326C0E0912303FD
:10038C00A0912403EA1768F4E0E0E0932503EB81E5
:10039C00A0912603EA1721F4E0912303EF5F1E2FAF
:1003AC0013C0E0912403EF5FE0932403E150A98193
:1003BC00BA81F0E0EA0FFB1FAB81A083EB81A09127
:1003CC002603EA27E0932603E12F18810CC2AA9397
:1003DC001A9310E0E981EA93ADE7B2E0A9DF1E2F92
:1003EC00103081F0F894E0E9F2E0FA93EA93EDE74B
:1003FC00F2E0FA93EA93A12FBB27E5D67894A0E913
:10040C00B2E06EDEE12F188154C5AA93FFD711E03C
:10041C00E0916A02E770A12F18D71E2FE0916A02B3
:10042C00E695E695E6950E2FEA81E03039F0A02F9F
:10043C00B0E0AE59BD4FEC91E12B0AC0E02FF0E0DB
:10044C00EE59FD4F0F01A081E12FE095EA23D00179
:10045C00EC93E0916A02EF5FE0936A02A0916A026A
:10046C00A03418F0E0E0E0936A02D7D72396089501
:10047C00CBD710E000E0183068F4E12FF0E0EE5933
:10048C00FD4F3081303021F030FD0F5F3695FACFC3
:10049C001F5FF1CFE02FA6C1BA93AA932297B2D7D0
:1004AC0048855985E8E0F4E8EE83FF8310E01B30C3
:1004BC0028F501E00030F1F0EE81E1703E2FEE8185
:1004CC00FF81F695E795EE83FF83DA01EC91E0234B
:1004DC0029F0DE011796EC91E068EC93303041F096
:1004EC00AE81BF81E8E0F4E8EA27FB27EE83FF83C7
:1004FC00000FE0CF1F5F4F5F5F4FD9CFEE81FF81C1
:10050C0088D72A9608952E977DD720E030E0AA242C
:10051C0010E01E3008F0F1C0AEE01A9FF001E05A76
:10052C00FE4FAF01DA01EC91E03009F4E4C0DA01DE
:10053C00B3DF9F01022E032A09F0DDC0DA01EC9132
:10054C00E031A9F4772011F4992009F00FC04A8BFF
:10055C005B8BAA89BB89119622D7E0935B02F0933F
:10056C005C02EA89FB89E381E0935D02C3C0E0325F
:10057C00D9F4488B598BA889B989119614D7E09373
:10058C00B502F093B6026093B7027093B802A889D3
:10059C00B989159608D7E093B902F093BA02609323
:1005AC00BB027093BC02A6C0E03329F54E875F876F
:1005BC00AE85BF851196F3D6E093C502F093C602C3
:1005CC00AE85BF851396EBD6E093C702F093C802B5
:1005DC00AE85BF851596E3D6E093C902F093CA02A7
:1005EC00EE85FF85E781E093CB02EE85FF85E08504
:1005FC00E093CC027FC0E03401F54C875D87AC857D
:10060C00BD851196CCD6E093CD02F093CE02AC858D
:10061C00BD851396C4D6E093CF02F093D002AC857F
:10062C00BD851596BCD6E093DA02F093DB02EC851F
:10063C00FD85E781E093DF025DC0E03529F54A874F
:10064C005B87AA85BB851196AAD6E093D102F0935D
:10065C00D202AA85BB851396A2D6E093D302F0935F
:10066C00D402AA85BB8515969AD6E093D502F09351
:10067C00D602EA85FB85E781E093DD02EA85FB85FE
:10068C00E085E093DE0236C0E036E9F47720D1F461
:10069C0048875987A885B985119685D6E093BD0200
:1006AC00F093BE026093BF027093C002A885B98517
:1006BC00159679D6E093C102F093C2026093C302FF
:1006CC007093C40217C0E037B1F4E1E0E093740218
:1006DC004E835F83AE81BF81119661D6E093010397
:1006EC00F0930203AE81BF81139659D6E0930303B6
:1006FC00F0930403A3941F5F0CCFE0E6F1E0FA93B0
:10070C00EA93E0E0EA93A4ECB0E06FD582D664966D
:10071C000895AA93E881E064E7B983E48A95F1F738
:10072C00369A349BFECF349AE4B1F5B121960895F4
:10073C006BD6E091E902F091EA029F01A091E702E9
:10074C00B091E802E091E902F091EA02AE17BF071E
:10075C0098F4A091E902B091EA02E091E702F091DD
:10076C00E802AE1BBF0BE5E0F0E0B3D58F012091A2
:10077C00E7023091E8020EC0A091E702B091E802C6
:10078C00E091E902F091EA02AE1BBF0BE5E0F0E06C
:10079C00A0D58F01F901E00FF11FE0937502F093E2
:1007AC007602A2E0A09FF001A19FF00DE20FF31FD3
:1007BC00E0937702F0937802A3E0A09FF001A19F51
:1007CC00F00DE20FF31FE0937902F0937A02A4E0AC
:1007DC00A09FF001A19FF00DE20FF31FE0937B02AD
:1007EC00F0937C0218D6249608950CD6A0E091DFE5
:1007FC009F01A091E702B091E802E091E902F0912B
:10080C00EA02AE17BF07B8F5E091E702F091E802F3
:10081C002E173F0720F42091E7023091E802E09177
:10082C00E902F091EA02E217F30720F42091E902C1
:10083C003091EA02A091E702B091E802F901EA1BBB
:10084C00FB0BA091E902B091EA02AE1BBF0B8D012C
:10085C00E091E902F091EA02E21BF30BA4E6B0E0AE
:10086C0006D50F01E091E902F091EA02A091E702AE
:10087C00B091E8022AC0E091E702F091E802E21799
:10088C00F30720F42091E7023091E802E091E902AD
:10089C00F091EA022E173F0720F42091E9023091E3
:1008AC00EA028901A091E902B091EA02F901EA1B7E
:1008BC00FB0BA4E6B0E0DBD40F01E091E702F09172
:1008CC00E802A091E902B091EA02EA1BFB0BD0010D
:1008DC0000D55E2FE0917502F09176020E171F077E
:1008EC0018F4C09AC39A2AC0E0917702F09178026A
:1008FC000E171F0740F4E82DE03011F4C39801C027
:10090C00C39AC09A1BC0E0917902F0917A020E173B
:10091C001F0718F4C398C09A11C0E0917B02F091A4
:10092C007C020E171F0740F4C398E82DE03011F439
:10093C00C09801C0C09A02C0C398C098A7EDB2E09D
:10094C00E52FF0E0ED93FC9364D54DC4442009F4FD
:10095C0008955D9B0895E32DF0E0EC5DFD4FE08183
:10096C00ECB93394431409F444240895AA934CD558
:10097C00442019F0AC81A03009F001C048C04424D7
:10098C00332424E232E0D9012F5F3F4FEAE5EC93A8
:10099C003F932F932F5F3F4FED81AF91BF91EC931E
:1009AC001D813F932F932F5F3F4FE885AF91BF91F0
:1009BC00EC931E2700E0ED810E17B0F4AE81BF81E1
:1009CC00EE27A00FBE1FEC911E273F932F932F5F96
:1009DC003F4FAE81BF81EE27A00FBE1FEC91AF91B0
:1009EC00BF91EC930F5FE7CF3F932F932F5F3F4F58
:1009FC00E12FAF91BF91EC93D9012F5F3F4FEDE009
:100A0C00EC93D901EAE0EC93ED81EA5F4E2E03D52D
:100A1C0029960895AA93EA93FA93EFB7EA93E0E044
:100A2C00E8B9F60131966F01E233A1E0FA0720F044
:100A3C00CC24DD24E2E0BE2EE991EFBFF991E991DF
:100A4C00A99118950A921A92AA93BA93EA93FA93D7
:100A5C00EFB7EA931A93E4B5EC3308F46BC0E4B542
:100A6C00A0916002B0916102F0E0EA0FFB1FE093ED
:100A7C006002F0936102E0E0E4BDCC24DD249A9B9B
:100A8C0011C0A0916002B0916102A93DE6EDBE07D4
:100A9C0040F0E0E0E0936002E0936102E2E0BE2E01
:100AAC0049C010C0A0916002B0916102A93CEFEA6C
:100ABC00BE0740F0E0E0E0936002E0936102E2E008
:100ACC00BE2E38C0E8EC2E1608F42394E0E12E1666
:100ADC0088F1E22DE0511E2F1E3050F4AEE01A9F2B
:100AEC00F001E05AFE4F5E2E6F2EEAE1E8B922C00B
:100AFC001E3051F4A0916002B0916102A93CEFEA62
:100B0C00BE0710F09A9901C001C00DC01E3051F4FF
:100B1C00A0916002B0916102A93BE8E8BE0710F019
:100B2C009A9B01C007C0E1E0BE2EE0E0E0936002BA
:100B3C00E09361021991E991EFBFF991E991B991B3
:100B4C00A991199009901895EA93EFB7EA9322248A
:100B5C00E0E0E8B9E991EFBFE99118950A931A938F
:100B6C002A93AA93BA930FB70A93A52DB62D0BE02F
:100B7C0018E01A9500000000000000000000C9F702
:100B8C00000000000000000000001127459B1061D0
:100B9C00000000000000000000000000459B1062F7
:100BAC00000000000000000000000000459B1064E5
:100BBC00000000000000000000000000459B1068D1
:100BCC000000000000000000212F1127459B116040
:100BDC0000000000000000002D93459B12600000F7
:100BEC0000000000000000000000459B1460015054
:100BFC0000000000000000000000459B1860000091
:100C0C0000000000000010F600E008B909910FBFC9
:100C1C00B991A9912991199109911895BA93AA930F
:100C2C002697F0D3ADEFB2E0EE85F0E0EE0FFF1FAC
:100C3C00AE0FBF1F0D901C90EE85A9EFB2E0F0E057
:100C4C00EE0FFF1FAE0FBF1FAAD3D001AE1BBF0B01
:100C5C00AE83BF83EE81FF8105D3E887F9876A876E
:100C6C007B87EC85FD85A885B9858A859B8566275C
:100C7C0077272AD3E887F9876A877B87EE85E03068
:100C8C00C1F4E0916B02E03049F0A885B9858A8502
:100C9C009B85E8E6F1E060E070E008C0A885B985C6
:100CAC008A859B85E4EBF0E060E070E04FD38F0128
:100CBC0017C0E0916B02E03049F0A885B9858A85B0
:100CCC009B85EAE5F0E060E070E008C0A885B98596
:100CDC008A859B85E4EBF0E060E070E037D38F0110
:100CEC00EE85A9EFB2E0F0E0EE0FFF1FAE0FBF1FD5
:100CFC0056D30E0F1F1FAE81BF8187D2EE83FF83A9
:100D0C00EE85A7E2B3E0F0E0EE0FFF1FAE0FBF1FC2
:100D1C002D913C910217130709F462C0EE85ABE2EA
:100D2C00B3E0F0E0EE0FFF1FAE0FBF1F4D915C91D3
:100D3C00201731072CF4EE81FF814E0F5F1F04C08A
:100D4C00AE81BF814A1B5B0BE0917002DA01F0E0CF
:100D5C00D3D2EE83FF83E0917002AE81BF81F0E0CD
:100D6C00AED24E1B5F0BEE85ABE2B3E0F0E0EE0FC4
:100D7C00FF1FEA0FFB1F40835183F901AE81BF8136
:100D8C00EA0FFB1FEE83FF83201731072CF4AE8193
:100D9C00BF810A171B070CF001C00CC00217130708
:100DAC002CF4AE81BF81A017B1070CF001C002C0BA
:100DBC000E811F81EE85A7E2B3E0F0E0EE0FFF1F7E
:100DCC00EA0FFB1F00831183EE85E03029F4F80154
:100DDC0044D2EBBD0ABD04C0F8013FD2E9BD08BD49
:100DEC0018D32F9608950ED3E0916B02E03021F0CA
:100DFC00A0915D02AB3508F403C0EAE5E0935D0217
:100E0C00E0915B02F0915C02E093E002F093E1026E
:100E1C00E0915D02E093E20200915B0210915C02B2
:100E2C00E0915E02F0915F020E0F1F1F0836E1E0A9
:100E3C001E0728F0D801E8E6F1E08DD28F01053BC2
:100E4C00E0E01E0720F0E0916B02E03009F00AC0F0
:100E5C00F801E45BF0409F01A0915D02E4EBEA1B1A
:100E6C004E2F03C0980140915D0255272093B1028B
:100E7C003093B2024093B3025093B402E0E0EA9391
:100E8C00D901CCDEE1E0EA93DA01C8DEC2D2ABC113
:100E9C00BA93AA93A881B981A83EE3E0BE0720F0DB
:100EAC00A536E9E1BE0718F0E6EAFEE002C0E881EB
:100EBC00F98122960895E0E3E8BBEFE0E7BBECE0B4
:100ECC00E5BBE0E0E4BBE2BBE2E3E1BBE0E0E3BFB7
:100EDC00E2BFE2EAEFBDEAE1EEBDE0E0EDBDECBD64
:100EEC00E3ECE7BDE0E5E6BDEEE0EBBDE6EAEABD2E
:100EFC00EEE0E9BDE6EAE8BD10E01230D0F4E12FF7
:100F0C00A7E2B3E0F0E0EE0FFF1FAE0FBF1FE6EA63
:100F1C00FEE0ED93FC93E12FABE2B3E0F0E0EE0FDB
:100F2C00FF1FAE0FBF1FE0E0F0E0ED93FC931F5FDF
:100F3C00E4CFE0E0E2BDEAE0E5BDE0E0E4BDE5EAF7
:100F4C00E3BDE0ECEBBFEAE8E5BFE0ECEABFE0E8CC
:100F5C00E9BFE0E0EBB9E8E9EAB9E6E8E0BDE0E0DA
:100F6C00E0BDE0E2E9B9E0E0E8B9E0BFE0E4E7B910
:100F7C00E5E8E6B9A2E1B0E01CD2DF0189DFE0933D
:100F8C00F902F093FA02A4E1B0E013D2DF0180DFA2
:100F9C00E093FD02F093FE02A6E1B0E00AD2DF017D
:100FAC0077DFE093FB02F093FC02A8E1B0E001D202
:100FBC00DF016EDFE093FF02F0930003AAE1B0E0E3
:100FCC00FCD1E23020F0AAE1B0E0E0E00AD2AAE1E4
:100FDC00B0E0F3D1E0936B02ABE1B0E0EED1E230E4
:100FEC0020F0ABE1B0E0E1E0FCD1ABE1B0E0E5D169
:100FFC00E0936C02ACE1B0E0E0D1E73920F0ACE179
:10100C00B0E0E2E3EED1ACE1B0E0D7D1E093700216
:10101C00E1E1E093DC02A1E2B0E0CBD1E130A4E06D
:10102C00FA0728F0A1E2B0E0E0E0F4E0D2D1A1E2CE
:10103C00B0E0BFD1E093E702F093E802A3E2B0E0A6
:10104C00B8D1E130A4E0FA0728F0A3E2B0E0E0E088
:10105C00F0E0BFD1A3E2B0E0ACD1E093E902F093B1
:10106C00EA02A0E1B0E0A5D1E836A1E0FA0728F049
:10107C00A0E1B0E0E0E0F0E0ACD1A0E1B0E099D1CB
:10108C00E0935E02F0935F0253DB2224E0E6F1E092
:10109C005E2E6F2E00E030E0AEE1B0E08AD1E93692
:1010AC00A1E0FA0728F0AEE1B0E0E0E0F0E091D189
:1010BC00A0E2B0E082D1E53B20F0A0E2B0E0E0E0BD
:1010CC0090D1AEE1B0E075D1E0935B02F0935C029D
:1010DC00A0E2B0E072D1E0935D02E091F902F091F0
:1010EC00FA02E093A302F093A402E091FB02F091C8
:1010FC00FC02E093A502F093A602A8ECB0E08FD01E
:10110C00C39AA0916C02A13009F4949AA8ECB0E0B7
:10111C0086D0C3989498C09AA8ECB0E080D0C098C0
:10112C00959AA0916C02A13009F4949AA8ECB0E0C5
:10113C0076D095989498A8ECB0E071D07894889576
:10114C00BB20F1F11B2DBB24113079F4DCD910E05C
:10115C00153048F4AA2019F0AA94A0E001C0A1E02F
:10116C0054D91F5FF5CF84D901C0E4E6E093D902CE
:10117C00A091D902A13210F0959A01C095980F5FF9
:10118C00053090F000E0E1E08E263F5F353058F0FE
:10119C0030E0A091D902A33328F0A0916C02A130C9
:1011AC0009F4949A01C0949820DBE0E0EA93E1EB17
:1011BC00F2E0FA93EA93EFE2EA93A1E0D7DB13DED5
:1011CC00C5DBBDCFFFCFBA93AA93998188810096D6
:1011DC0041F0BD81AC81FB81EA8161916D930197F6
:1011EC00E1F7FD81EC8126960895BA93AA93B98113
:1011FC00A881109631F0FC81EB816A816193119783
:10120C00E9F7EB81FC8125960895BA93AA93E991AD
:10121C00F99130971AF4E095F0953196089510965F
:10122C0039F088E893E10197F1F7A8951197C9F780
:10123C000895F195E195F0400895F09560957095BD
:10124C00E195FF4F6F4F7F4F0895EE230E2EEA2F3F
:10125C0019F0EE0F0A94E9F70895EF2FFF27E7FD39
:10126C00FFEF08956F2F660F660B762F0895FA9F88
:10127C00F02DEB9FF00DEA9FE02DF10D08957A9F74
:10128C00702D6B9F700DF89F700DE99F700D6A9F0C
:10129C00602D710DFB9F600D711DE89F600D711D20
:1012AC008827FA9FF02D610D781FEB9FF00D611DC3
:1012BC00781FEA9FE02DF10D681F781F08954ED01E
:1012CC00D6DF0EF4B6DF089557D0D9DF0EF4B5DFB4
:1012DC0008950024112490E1AA0FBB1F001C111CBF
:1012EC000E1A1F0A18F40E0E1F1E01C0A1609A954B
:1012FC0099F7FD01D001089531D0EBDF0EF499DFA1
:10130C0008953F934F935F9300241124442755274E
:10131C0030E2AA0FBB1F881F991F001C111C441F11
:10132C00551F0E1A1F0A460B570B28F40E0E1F1EC4
:10133C00461F571F01C0A1603A9559F7FD01BC012A
:10134C00D001CA015F914F913F91089515D0D9DF1B
:10135C000EF473DF0895BDDFFD010895E894F7FFE7
:10136C0002C067DF6894B7FF06C0A095B0951196D0
:10137C0000F8039400FA0895E89477FF02C05DDF4B
:10138C00689497FF0BC00024A095B095809590951C
:10139C001196801D901D00F8039400FA0895ED91AC
:1013AC00FC9111970895ED91FD916D917C9113979E
:1013BC000895119602D0FE2F1197E199FECFFF935D
:1013CC00FFB7F894AEBBBFBBE09AEDB3FFBFFF9184
:1013DC00089507D01196EF93EF2F03D0EF9111974B
:1013EC000895E19B02C0A895FCCF9FB7F894AEBBC3
:1013FC00BFBBE09A8DB3E81719F0EDBBE29AE19A06
:10140C009FBF08955A934A933A932A931A930A9337
:10141C0008955D814C813B812A8119810881089551
:00000001FF
